{
    "abi": [
        {
            "type": "constructor",
            "inputs": [
                {
                    "name": "_collateralToken",
                    "type": "address",
                    "internalType": "contract IERC20"
                },
                {
                    "name": "_lendingToken",
                    "type": "address",
                    "internalType": "contract IERC20"
                },
                {
                    "name": "_collateralFactor",
                    "type": "uint256",
                    "internalType": "uint256"
                }
            ],
            "stateMutability": "nonpayable"
        },
        {
            "type": "function",
            "name": "collateralBalances",
            "inputs": [
                {
                    "name": "",
                    "type": "address",
                    "internalType": "address"
                }
            ],
            "outputs": [
                {
                    "name": "",
                    "type": "uint256",
                    "internalType": "uint256"
                }
            ],
            "stateMutability": "view"
        },
        {
            "type": "function",
            "name": "collateralFactor",
            "inputs": [],
            "outputs": [
                {
                    "name": "",
                    "type": "uint256",
                    "internalType": "uint256"
                }
            ],
            "stateMutability": "view"
        },
        {
            "type": "function",
            "name": "collateralToken",
            "inputs": [],
            "outputs": [
                {
                    "name": "",
                    "type": "address",
                    "internalType": "contract IERC20"
                }
            ],
            "stateMutability": "view"
        },
        {
            "type": "function",
            "name": "depositCollateral",
            "inputs": [
                {
                    "name": "_amount",
                    "type": "uint256",
                    "internalType": "uint256"
                }
            ],
            "outputs": [],
            "stateMutability": "nonpayable"
        },
        {
            "type": "function",
            "name": "getLoanDetails",
            "inputs": [
                {
                    "name": "_user",
                    "type": "address",
                    "internalType": "address"
                }
            ],
            "outputs": [
                {
                    "name": "amount",
                    "type": "uint256",
                    "internalType": "uint256"
                },
                {
                    "name": "collateral",
                    "type": "uint256",
                    "internalType": "uint256"
                },
                {
                    "name": "isActive",
                    "type": "bool",
                    "internalType": "bool"
                }
            ],
            "stateMutability": "view"
        },
        {
            "type": "function",
            "name": "lendingToken",
            "inputs": [],
            "outputs": [
                {
                    "name": "",
                    "type": "address",
                    "internalType": "contract IERC20"
                }
            ],
            "stateMutability": "view"
        },
        {
            "type": "function",
            "name": "loans",
            "inputs": [
                {
                    "name": "",
                    "type": "address",
                    "internalType": "address"
                }
            ],
            "outputs": [
                {
                    "name": "amount",
                    "type": "uint256",
                    "internalType": "uint256"
                },
                {
                    "name": "collateral",
                    "type": "uint256",
                    "internalType": "uint256"
                },
                {
                    "name": "isActive",
                    "type": "bool",
                    "internalType": "bool"
                }
            ],
            "stateMutability": "view"
        },
        {
            "type": "function",
            "name": "owner",
            "inputs": [],
            "outputs": [
                {
                    "name": "",
                    "type": "address",
                    "internalType": "address"
                }
            ],
            "stateMutability": "view"
        },
        {
            "type": "function",
            "name": "renounceOwnership",
            "inputs": [],
            "outputs": [],
            "stateMutability": "nonpayable"
        },
        {
            "type": "function",
            "name": "repayLoan",
            "inputs": [
                {
                    "name": "_amount",
                    "type": "uint256",
                    "internalType": "uint256"
                }
            ],
            "outputs": [],
            "stateMutability": "nonpayable"
        },
        {
            "type": "function",
            "name": "setCollateralFactor",
            "inputs": [
                {
                    "name": "_newFactor",
                    "type": "uint256",
                    "internalType": "uint256"
                }
            ],
            "outputs": [],
            "stateMutability": "nonpayable"
        },
        {
            "type": "function",
            "name": "takeLoan",
            "inputs": [
                {
                    "name": "_amount",
                    "type": "uint256",
                    "internalType": "uint256"
                }
            ],
            "outputs": [],
            "stateMutability": "nonpayable"
        },
        {
            "type": "function",
            "name": "transferOwnership",
            "inputs": [
                {
                    "name": "newOwner",
                    "type": "address",
                    "internalType": "address"
                }
            ],
            "outputs": [],
            "stateMutability": "nonpayable"
        },
        {
            "type": "function",
            "name": "withdrawCollateral",
            "inputs": [
                {
                    "name": "_amount",
                    "type": "uint256",
                    "internalType": "uint256"
                }
            ],
            "outputs": [],
            "stateMutability": "nonpayable"
        },
        {
            "type": "event",
            "name": "CollateralDeposited",
            "inputs": [
                {
                    "name": "user",
                    "type": "address",
                    "indexed": true,
                    "internalType": "address"
                },
                {
                    "name": "amount",
                    "type": "uint256",
                    "indexed": false,
                    "internalType": "uint256"
                }
            ],
            "anonymous": false
        },
        {
            "type": "event",
            "name": "CollateralWithdrawn",
            "inputs": [
                {
                    "name": "user",
                    "type": "address",
                    "indexed": true,
                    "internalType": "address"
                },
                {
                    "name": "amount",
                    "type": "uint256",
                    "indexed": false,
                    "internalType": "uint256"
                }
            ],
            "anonymous": false
        },
        {
            "type": "event",
            "name": "LoanRepaid",
            "inputs": [
                {
                    "name": "user",
                    "type": "address",
                    "indexed": true,
                    "internalType": "address"
                },
                {
                    "name": "amount",
                    "type": "uint256",
                    "indexed": false,
                    "internalType": "uint256"
                }
            ],
            "anonymous": false
        },
        {
            "type": "event",
            "name": "LoanTaken",
            "inputs": [
                {
                    "name": "user",
                    "type": "address",
                    "indexed": true,
                    "internalType": "address"
                },
                {
                    "name": "amount",
                    "type": "uint256",
                    "indexed": false,
                    "internalType": "uint256"
                }
            ],
            "anonymous": false
        },
        {
            "type": "event",
            "name": "OwnershipTransferred",
            "inputs": [
                {
                    "name": "previousOwner",
                    "type": "address",
                    "indexed": true,
                    "internalType": "address"
                },
                {
                    "name": "newOwner",
                    "type": "address",
                    "indexed": true,
                    "internalType": "address"
                }
            ],
            "anonymous": false
        },
        {
            "type": "error",
            "name": "OwnableInvalidOwner",
            "inputs": [
                {
                    "name": "owner",
                    "type": "address",
                    "internalType": "address"
                }
            ]
        },
        {
            "type": "error",
            "name": "OwnableUnauthorizedAccount",
            "inputs": [
                {
                    "name": "account",
                    "type": "address",
                    "internalType": "address"
                }
            ]
        }
    ],
    "bytecode": {
        "object": "0x60c060405234801561000f575f80fd5b50604051610e26380380610e2683398101604081905261002e91610134565b338061005457604051631e4fbdf760e01b81525f60048201526024015b60405180910390fd5b61005d816100ca565b5060648111156100af5760405162461bcd60e51b815260206004820181905260248201527f436f6c6c61746572616c20666163746f72206d757374206265203c3d20313030604482015260640161004b565b6001600160a01b03928316608052911660a05260015561016d565b5f80546001600160a01b038381166001600160a01b0319831681178455604051919092169283917f8be0079c531659141344cd1fd0a4f28419497f9722a3daafe3b4186f6b6457e09190a35050565b80516001600160a01b038116811461012f575f80fd5b919050565b5f805f60608486031215610146575f80fd5b61014f84610119565b925061015d60208501610119565b9150604084015190509250925092565b60805160a051610c7c6101aa5f395f81816101c20152818161065601526107d901525f81816101fc01528181610405015261096c0152610c7c5ff3fe608060405234801561000f575f80fd5b50600436106100e5575f3560e01c8063ab7b1c8911610088578063bad4a01f11610063578063bad4a01f14610231578063df011c4114610244578063e8a7da8e1461024d578063f2fde38b146102a3575f80fd5b8063ab7b1c89146101e4578063b2016bd4146101f7578063b5c221571461021e575f80fd5b806373b4086b116100c357806373b4086b146101385780638c803fc2146101865780638da5cb5b14610199578063aaaca558146101bd575f80fd5b806329bc969d146100e95780636112fe2e1461011b578063715018a614610130575b5f80fd5b6101086100f7366004610b3d565b60026020525f908152604090205481565b6040519081526020015b60405180910390f35b61012e610129366004610b63565b6102b6565b005b61012e6104b2565b610169610146366004610b3d565b60036020525f908152604090208054600182015460029092015490919060ff1683565b604080519384526020840192909252151590820152606001610112565b61012e610194366004610b63565b6104c5565b5f546001600160a01b03165b6040516001600160a01b039091168152602001610112565b6101a57f000000000000000000000000000000000000000000000000000000000000000081565b61012e6101f2366004610b63565b6106f3565b6101a57f000000000000000000000000000000000000000000000000000000000000000081565b61012e61022c366004610b63565b6108aa565b61012e61023f366004610b63565b610908565b61010860015481565b61016961025b366004610b3d565b6001600160a01b03165f9081526003602090815260409182902082516060810184528154808252600183015493820184905260029092015460ff161515930183905292909190565b61012e6102b1366004610b3d565b610a17565b5f81116102de5760405162461bcd60e51b81526004016102d590610b7a565b60405180910390fd5b335f9081526002602052604090205481111561033c5760405162461bcd60e51b815260206004820152601760248201527f496e73756666696369656e7420636f6c6c61746572616c00000000000000000060448201526064016102d5565b5f61034633610a54565b335f9081526002602052604090205461035f9190610bc5565b9050808211156103c65760405162461bcd60e51b815260206004820152602c60248201527f63616e6e6f7420776974686472617720636f6c6c61746572616c206c6f636b6560448201526b32103337b91030903637b0b760a11b60648201526084016102d5565b335f90815260026020526040812080548492906103e4908490610bc5565b909155505060405163a9059cbb60e01b8152336004820152602481018390527f00000000000000000000000000000000000000000000000000000000000000006001600160a01b03169063a9059cbb906044016020604051808303815f875af1158015610453573d5f803e3d5ffd5b505050506040513d601f19601f820116820180604052508101906104779190610bde565b5060405182815233907fc30fcfbcaac9e0deffa719714eaa82396ff506a0d0d0eebe170830177288715d906020015b60405180910390a25050565b6104ba610ac2565b6104c35f610aee565b565b5f81116104e45760405162461bcd60e51b81526004016102d590610b7a565b335f9081526003602052604090206002015460ff16156105515760405162461bcd60e51b815260206004820152602260248201527f4578697374696e67206c6f616e206d75737420626520726570616964206669726044820152611cdd60f21b60648201526084016102d5565b600154335f9081526002602052604081205490916064916105729190610bfd565b61057c9190610c14565b9050808211156105da5760405162461bcd60e51b8152602060048201526024808201527f4c6f616e20616d6f756e74206578636565647320636f6c6c61746572616c206c6044820152631a5b5a5d60e21b60648201526084016102d5565b60408051606081018252838152335f8181526002602081815285832054818601908152600186880181815286865260039093529387902095518655519285019290925590519201805460ff191692151592909217909155905163a9059cbb60e01b81526004810191909152602481018390526001600160a01b037f0000000000000000000000000000000000000000000000000000000000000000169063a9059cbb906044016020604051808303815f875af115801561069c573d5f803e3d5ffd5b505050506040513d601f19601f820116820180604052508101906106c09190610bde565b5060405182815233907fd5c776eab9418d89c040ffee59f2310d225f5ff682191bcee59b0413a7fd4835906020016104a6565b5f81116107125760405162461bcd60e51b81526004016102d590610b7a565b335f908152600360205260409020600281015460ff1615156001146107705760405162461bcd60e51b8152602060048201526014602482015273139bc81858dd1a5d99481b1bd85b88199bdd5b9960621b60448201526064016102d5565b80548211156107b75760405162461bcd60e51b815260206004820152601360248201527220b6b7bab73a1032bc31b2b2b239903637b0b760691b60448201526064016102d5565b6040516323b872dd60e01b8152336004820152306024820152604481018390527f00000000000000000000000000000000000000000000000000000000000000006001600160a01b0316906323b872dd906064016020604051808303815f875af1158015610827573d5f803e3d5ffd5b505050506040513d601f19601f8201168201806040525081019061084b9190610bde565b5081815f015f82825461085e9190610bc5565b909155505080545f036108785760028101805460ff191690555b60405182815233907fc200a1f31dd659e356e0f112c82558e25f49f7b0f84438691cd96f5cb3558823906020016104a6565b6108b2610ac2565b60648111156109035760405162461bcd60e51b815260206004820181905260248201527f436f6c6c61746572616c20666163746f72206d757374206265203c3d2031303060448201526064016102d5565b600155565b5f81116109275760405162461bcd60e51b81526004016102d590610b7a565b335f9081526002602052604081208054839290610945908490610c33565b90915550506040516323b872dd60e01b8152336004820152306024820152604481018290527f00000000000000000000000000000000000000000000000000000000000000006001600160a01b0316906323b872dd906064016020604051808303815f875af11580156109ba573d5f803e3d5ffd5b505050506040513d601f19601f820116820180604052508101906109de9190610bde565b5060405181815233907fd7243f6f8212d5188fd054141cf6ea89cfc0d91facb8c3afe2f88a13584801429060200160405180910390a250565b610a1f610ac2565b6001600160a01b038116610a4857604051631e4fbdf760e01b81525f60048201526024016102d5565b610a5181610aee565b50565b6001600160a01b0381165f9081526003602090815260408083208151606081018352815481526001820154938101939093526002015460ff161515908201819052610aa157505f92915050565b6001548151610ab1906064610bfd565b610abb9190610c14565b9392505050565b5f546001600160a01b031633146104c35760405163118cdaa760e01b81523360048201526024016102d5565b5f80546001600160a01b038381166001600160a01b0319831681178455604051919092169283917f8be0079c531659141344cd1fd0a4f28419497f9722a3daafe3b4186f6b6457e09190a35050565b5f60208284031215610b4d575f80fd5b81356001600160a01b0381168114610abb575f80fd5b5f60208284031215610b73575f80fd5b5035919050565b6020808252601d908201527f416d6f756e74206d7573742062652067726561746572207468616e2030000000604082015260600190565b634e487b7160e01b5f52601160045260245ffd5b81810381811115610bd857610bd8610bb1565b92915050565b5f60208284031215610bee575f80fd5b81518015158114610abb575f80fd5b8082028115828204841417610bd857610bd8610bb1565b5f82610c2e57634e487b7160e01b5f52601260045260245ffd5b500490565b80820180821115610bd857610bd8610bb156fea26469706673582212202f28337700005f31aec53fb6bf3d88e596bb9b67372c7d3b00b3984f4d3dd8e964736f6c63430008190033",
        "linkReferences": {}
    },
    "methodIdentifiers": {
        "collateralBalances(address)": "29bc969d",
        "collateralFactor()": "df011c41",
        "collateralToken()": "b2016bd4",
        "depositCollateral(uint256)": "bad4a01f",
        "getLoanDetails(address)": "e8a7da8e",
        "lendingToken()": "aaaca558",
        "loans(address)": "73b4086b",
        "owner()": "8da5cb5b",
        "renounceOwnership()": "715018a6",
        "repayLoan(uint256)": "ab7b1c89",
        "setCollateralFactor(uint256)": "b5c22157",
        "takeLoan(uint256)": "8c803fc2",
        "transferOwnership(address)": "f2fde38b",
        "withdrawCollateral(uint256)": "6112fe2e"
    },
    "id": 24
}